:030000000201B149
:0C01B100787FE4F6D8FD75810A0201F8A1
:06034200010800010900A2
:0503490012023D80FEE0
:10023D0030B70C30B6097D547F531202AB80F130CC
:10024D00B40F30B50C20B70920B6067D547F46801B
:10025D002C20B40930B5067D547F52800A30B4137A
:10026D0020B5107D547F4C1202AB7F017E0012032E
:10027D0027800D20B40A20B5077D427F4C1202ABBA
:10028D0020B70C30B6097D827F7E12000380A1302D
:0E029D00B79E20B69B7D7E7F8212000380926A
:10032700EF1FAA0670011E4A60107C007DC8ED1DF4
:0A033700AA0470011C4A60E880F47B
:010341002299
:1002AB008D0AEF24BE601724FC600F24FA60132420
:1002BB00FA602A147043E4FD801C7D7F80367D80BC
:1002CB008017E50AB44207E4FD7F80120003E50ABC
:1002DB007D7FB44604E4FF801D7F808019E50AB45E
:1002EB0042077D80E4FF120003E50AB44604E4FDF7
:0A02FB0080027D807F7F1200032245
:10000300C3ED6480F87480985006E509700280019E
:10001300C39296D3ED6480F874FF6480984007E53B
:10002300097003D38001C39295C3EF6480F8748091
:10003300985006E50870028001C39294D3EF648060
:10004300F874FF6480984007E5087003D38001C308
:100053009293EF6003BFFF0CED6003BDFF067A00D0
:100063007B0180047A007B00EA4B24FFB39281C3B7
:10007300ED6480F87480985015C3EF6480F8748041
:100083009850028001C340067A007B0180047A0005
:100093007B00EA4B24FFB39282D3EF6480F874FFB2
:1000A3006480984018D3ED6480F874FF64809840AE
:1000B30003D38001C340067A007B0180047A007B6E
:1000C30000EA4B24FFB39283D3EF6480F874FF6498
:1000D30080984012D3ED6480F874FF6480984006E2
:1000E3007A007B0180047A007B00EA4B24FFB39201
:1000F30084D3EF6480F874FF6480984003D3800155
:10010300C34012D3ED6480F874FF64809840067A8C
:10011300007B0180047A007B00EA4B24FFB39285C5
:10012300C3EF6480F87480985015C3ED6480F8744D
:10013300809850028001C340067A007B0180047AD4
:10014300007B00EA4B24FFB39286C3EF6480F8740C
:1001530080985010C3ED6480F874809850067A003C
:100163007B0180047A007B00EA4B24FFB39287056E
:10017300080509C3EF648094805005EFF4FF800005
:10018300C374809FFFE5088FF012030585F008C351
:10019300ED648094805005EDF4FF8002AF05C374D5
:0D01A300809FFFE5098FF012030585F0092C
:0101B000222C
:1001BD00020349E493A3F8E493A34003F68001F20C
:1001CD0008DFF48029E493A3F85407240CC8C33343
:1001DD00C4540F4420C8834004F456800146F6DF12
:1001ED00E4800B0102040810204080900342E47E5D
:1001FD00019360BCA3FF543F30E509541FFEE49307
:10020D00A360010ECF54C025E060A840B8E493A3CD
:10021D00FAE493A3F8E493A3C8C582C8CAC583CAF8
:10022D00F0A3C8C582C8CAC583CADFE9DEE780BEB0
:0103480000B4
:10030500C2D530F707B2D563F0FF05F030E70CB280
:10031500D5F4048463F0FF05F080018430D502F440
:020325000422B0
:00000001FF
