:03000000020139C1
:0C013900787FE4F6D8FD75810902018092
:06024500010800010900A0
:08023D001201F912000380F820
:01024C00228F
:1001F90030B70830B605E4FDFF801A30B6047F0138
:1002090080027F00EF14600904700D7DF67F648021
:09021900047D647FF61200A422AA
:10022200EF1FAA0670011E4A60107C077DD0ED1DEB
:0A023200AA0470011C4A60E880F481
:01023C00229F
:1000A400C3EF648094805005EFF4FE8002AE07D362
:1000B400EE6480F8E508648098501BEF64809480B7
:1000C4004006D294C2938012C3EF6480947F50069A
:1000D400D293C2948004C293C294C3ED648094808A
:1000E4005005EDF4FF8002AF05D3EF6480F8E50915
:1000F4006480985021ED648094804006D296C29525
:100104008018C3ED6480947F5006D295C296800A0D
:10011400C295C2968004C295C29505080509E508F2
:1001240075F0801201C585F008E50975F0801201AB
:04013400C585F00984
:0101380022A4
:100003007E003095047F0180027F00EF25E0FFEE44
:1000130033FE7C003096047D0180027D00EF2DFBD2
:10002300EE3CFA7E003094047F0180027F007C0066
:100033007D031201E7EF2BFBEE3AFA7E00309304C7
:100043007F0180027F007C007D061201E7EF2BFF1A
:10005300EE3AFE704BEFB409005045900065F82866
:10006300287302008002008402008802008C0200D0
:100073009002009402009802009C0200A07580FD8B
:10008300227580FB227580F7227580BF2275807FE1
:10009300227580DB227580DF227580B7227580D7B9
:0100A300223A
:1001450002023DE493A3F8E493A34003F68001F291
:1001550008DFF48029E493A3F85407240CC8C333BB
:10016500C4540F4420C8834004F456800146F6DF8A
:10017500E4800B0102040810204080900245E47ED3
:10018500019360BCA3FF543F30E509541FFEE4937F
:10019500A360010ECF54C025E060A840B8E493A346
:1001A500FAE493A3F8E493A3C8C582C8CAC583CA71
:1001B500F0A3C8C582C8CAC583CADFE9DEE780BE29
:01024B0000B2
:1001C500C2D530F707B2D563F0FF05F030E70CB2C2
:1001D500D5F4048463F0FF05F080018430D502F482
:0201E5000422F2
:1001E700EF8DF0A4A8F0CF8CF0A428CE8DF0A42E2C
:0201F700FE22E6
:00000001FF
