:03000000020003F8
:0C000300787FE4F6D8FD75810A02004AFF
:06023700010800010900AE
:10020B007D7F7F7F12008F7D807F8012008F7D7FAF
:07021B007F7F12008F80F7C6
:1001140030B70C30B6097D547F5312017880F1302A
:10012400B40F30B50C20B70920B6067D547F468045
:100134002220B40930B5067D547F52801630B409AC
:1001440020B5067D547F4C800A20B40A20B5077D73
:10015400427F4C12017820B70C30B6097D827F7E35
:1001640012008F80AB30B7A820B6A57D7E7F8212A7
:04017400008F809CDC
:1001F000EF1FAA0670011E4A60107C077DD0ED1D1E
:0A020000AA0470011C4A60E880F4B3
:01020A0022D1
:100178008D0AEF24BE601324FC600F24FA600F245C
:10018800FA602614703FE4FD80187D7E8017E50A2A
:10019800B44207E4FD7F7E12008FE50A7D7EB446F7
:1001A80004E4FF801D7F7E8019E50AB442077D7E46
:1001B800E4FF12008FE50AB44604E4FD80027D7E68
:0601C8007F7E12008F2271
:10022200D3EF9400EE6480948040028007C3E49F81
:05023200FFE49EFE2226
:10008F00E5087024D3EF6480948040047E018002E1
:10009F007E00EE600914700CD294C293800AD29342
:1000AF00C2948004C294C293E5097024D3ED648096
:1000BF00948040047E0180027E00EE600914700C73
:1000CF00D296C295800AD295C2968004C295C296E6
:1000DF0005080509EF3395E0FE120222C374809FD5
:1000EF00FFE5088FF01201CE85F008AF05EF3395CD
:1000FF00E0FE120222C374809FFFE5098FF0120108
:04010F00CE85F009A0
:0101130022C9
:10000F0002020BE493A3F8E493A34003F68001F2FA
:10001F0008DFF48029E493A3F85407240CC8C333F2
:10002F00C4540F4420C8834004F456800146F6DFC1
:10003F00E4800B0102040810204080900237E47E18
:10004F00019360BCA3FF543F30E509541FFEE493B6
:10005F00A360010ECF54C025E060A840B8E493A37D
:10006F00FAE493A3F8E493A3C8C582C8CAC583CAA8
:10007F00F0A3C8C582C8CAC583CADFE9DEE780BE60
:01023D0000C0
:1001CE00C2D530F707B2D563F0FF05F030E70CB2B9
:1001DE00D5F4048463F0FF05F080018430D502F479
:0201EE000422E9
:00000001FF
