:0300000002012CCE
:0C012C00787FE4F6D8FD758109020173AC
:06023400010800010900B1
:08022C001201EC12000380F83E
:01023B0022A0
:1001EC0030B704E4FD801930B6047F0180027F0033
:1001FC00EF14600904700DE4FD7F7F80047D7FE4C3
:05020C00FF1200992221
:10021100EF1FAA0670011E4A60107C077DD0ED1DFC
:0A022100AA0470011C4A60E880F492
:01022B0022B0
:10009900C3EF648094805005EFF4FE8002AE07D36D
:1000A900EE6480F8E508648098501BEF64809480C2
:1000B9004006D294C2938012C3EF6480947F5006A5
:1000C900D293C2948004C293C294C3EF6480948093
:1000D9005005EFF4FF8000D3EF6480F8E5096480F0
:1000E900985021ED648094804006D296C29580187C
:1000F900C3ED6480947F5006D295C296800AC2955A
:10010900C2968004C295C29505080509E50875F0EF
:10011900801201B885F008E50975F0801201B885EB
:02012900F009DB
:01012B0022B1
:100003007E003095047F0180027F00EF25E0FFEE44
:1000130033FE7C003096047D0180027D00EF2DFBD2
:10002300EE3CFA7E003094047F0180027F007C0066
:100033007D031201DAEF2BFBEE3AFA7E00309304D4
:100043007F0180027F007C007D061201DAEF2BFF27
:10005300EE3AFE7040EFB40900503A900065F8287C
:1000630028730200800200830200860200890200D6
:100073008C02009802008F0200920200957580FDA9
:100083007580BF7580DF7580FB75807F7580F77520
:0500930080B77580D765
:010098002245
:1001380002022CE493A3F8E493A34003F68001F2AF
:1001480008DFF48029E493A3F85407240CC8C333C8
:10015800C4540F4420C8834004F456800146F6DF97
:10016800E4800B0102040810204080900234E47EF1
:10017800019360BCA3FF543F30E509541FFEE4938C
:10018800A360010ECF54C025E060A840B8E493A353
:10019800FAE493A3F8E493A3C8C582C8CAC583CA7E
:1001A800F0A3C8C582C8CAC583CADFE9DEE780BE36
:01023A0000C3
:1001B800C2D530F707B2D563F0FF05F030E70CB2CF
:1001C800D5F4048463F0FF05F080018430D502F48F
:0201D8000422FF
:1001DA00EF8DF0A4A8F0CF8CF0A428CE8DF0A42E39
:0201EA00FE22F3
:00000001FF
