:0300000002011BDF
:0C011B00787FE4F6D8FD7581080201270A
:0501270012008680FEBD
:1000860030B70930B6067D547F53804B30B40F30FD
:10009600B50C20B70920B6067D547F46802C20B4C7
:1000A6000930B5067D547F52800A30B41320B5104E
:1000B6007D547F4C1200037F017E001200F1800DFB
:1000C60020B40A20B5077D427F4C12000320B70CEE
:1000D60030B6097D467F5212000380A430B7A120B6
:0B00E600B69E7D467F4C120003809503
:1000F100EF1FAA0670011E4A60107C007DC8ED1D2D
:0A010100AA0470011C4A60E880F4B3
:01010B0022D1
:100003008D08EF24BE602B24FC601924FA60312490
:10001300FA604E14706C12010CC296C295C294C25F
:1000230093C2812212010CD296C295D294C293C27A
:10003300872212010CC296D295C294D293C2842213
:1000430012010CE508B44204C2968004D296C2821F
:10005300C295C294E508B44603C29322D293C283E5
:100063002212010CC296E508B44604C2958004D25C
:1000730095C285E508B44204C2948004D294C28632
:03008300C2932203
:0F010C00D281D282D283D284D285D286D2872268
:00000001FF
