:030000000200E714
:0C00E700787FE4F6D8FD75810702000365
:1000030030B40D30B50A20B70720B6047F468029E7
:1000130020B40730B5047F52800830B40F20B50CEC
:100023007F4C1200637F011200C1801020B40D20A9
:10003300B50A7F421200637F4C12006320B707307A
:10004300B6047F52800830B70A20B6077F4C1200EF
:100053006380AD30B7AA30B6A77F5312006380A088
:1000C100AE071FEE60107C077DD0ED1DAA04700104
:0600D1001C4A60EC80F403
:0100D7002206
:10006300EF24BE602B24FC601924FA603124FA606B
:100073003D147049C296C295C294C2931200D8C26D
:100083008122D296C295D294C2931200D8C28722FB
:10009300C296D295C294D2931200D8C28422D29629
:1000A300C295C294D2931200D8C282C28522C2964C
:0E00B300D295D294C2931200D8C286C2832284
:0F00D800D281D282D283D284D285D286D287229D
:00000001FF
