:03000000020133C7
:0C013300787FE4F6D8FD75810902017A9E
:0602520001080001090093
:08024A001201BF12000380F84D
:010259002282
:1001BF0030B70730B604E4FD802D30B6047F0180E0
:1001CF00027F00EF14600904700DE4FD7F6480046A
:1001DF007D64E4FF1200A030B7047F0180027F002E
:0C01EF00EF1470077D64E4FF1200A022F2
:10022F00EF1FAA0670011E4A60107C077DD0ED1DDE
:0A023F00AA0470011C4A60E880F474
:010249002292
:1000A000C3EF648094805005EFF4FE8002AE07D366
:1000B000EE6480F8E508648098501BEF64809480BB
:1000C0004006D294C2938012C3EF6480947F50069E
:1000D000D293C2948004C293C294C3EF648094808C
:1000E0005005EFF4FF8000D3EF6480F8E5096480E9
:1000F000985021ED648094804006D296C295801875
:10010000C3ED6480947F5006D295C296800AC29552
:10011000C2968004C295C29505080509E50875F0E8
:10012000801201FB85F008E50975F0801201FB855E
:02013000F009D4
:0101320022AA
:100003007E003095047F0180027F00EF25E0FFEE44
:1000130033FE7C003096047D0180027D00EF2DFBD2
:10002300EE3CFA7E003094047F0180027F007C0066
:100033007D0312021DEF2BFBEE3AFA7E0030930490
:100043007F0180027F007C007D0612021DEF2BFFE3
:10005300EE3AFE7047EFB409005041900065F8286E
:10006300287302008002008402008802008C0200D0
:100073009002009F02009402009802009C7580FD8C
:10008300227580BF227580DF227580FB2275807FF9
:0C009300227580F7227580B7227580D797
:01009F00223E
:10013F0002024AE493A3F8E493A34003F68001F28A
:10014F0008DFF48029E493A3F85407240CC8C333C1
:10015F00C4540F4420C8834004F456800146F6DF90
:10016F00E4800B0102040810204080900252E47ECC
:10017F00019360BCA3FF543F30E509541FFEE49385
:10018F00A360010ECF54C025E060A840B8E493A34C
:10019F00FAE493A3F8E493A3C8C582C8CAC583CA77
:1001AF00F0A3C8C582C8CAC583CADFE9DEE780BE2F
:0102580000A5
:1001FB00C2D530F707B2D563F0FF05F030E70CB28C
:10020B00D5F4048463F0FF05F080018430D502F44B
:02021B000422BB
:10021D00EF8DF0A4A8F0CF8CF0A428CE8DF0A42EF5
:02022D00FE22AF
:00000001FF
