:0300000002014CAE
:0C014C00787FE4F6D8FD7581170201935E
:0C02C500010A7F010B7F01080001090005
:0C02D2001202B57D0A7F0A12024280F77A
:1002B500758901758CFF758AF6D28CD2A9D2AF22C9
:1002850030B40730B5047D7F800820B40930B50649
:100295007D817F7F801630B40920B5067D7F7F8103
:1002A500800A20B40A20B507E4FD7F8112024222AC
:100242008D0B8F0AD3EF648094804006D291C290C6
:100252008012C3EF6480947F5006C291D2908004D2
:10026200C291C290D3ED648094804005D293C29231
:1002720022C3ED6480947F5005C293D29222C2932E
:03028200C2922203
:10000E007E003092047F0180027F00EF25E0FFEE3C
:10001E0033FE7C003093047D0180027D00EF2DFBCA
:10002E00EE3CFA7E003091047F0180027F007C005E
:10003E007D031200AFEF2BFBEE3AFA7E00309004F8
:10004E007F0180027F007C007D061200AFEF2BFF48
:10005E00EE3AFE704BEFB409005045900070F82850
:10006E00287302008B02008F020093020097020099
:10007E009B02009F0200A30200A70200AB7580FD49
:10008E00227580FB227580F7227580BF2275807FD6
:10009E00227580DB227580DF227580B7227580D7AE
:0100AE00222F
:03000B000201D817
:0901D800C0E0C0F0C0D075D010E9
:1001E100C3E50A6480F8E5086480985004D29480DD
:1001F10002C294C3E50B6480F8E509648098500459
:10020100D2958002C295758CFF758AF6AF08EF33DF
:1002110095E0FEEF2401FFE43EFE7C007D801200AC
:10022100C18D08AF09EF3395E0FEEF2401FFE43EF5
:0A023100FE7C007D801200C18D09E3
:07023B00D0D0D0F0D0E0327A
:100158000202D2E493A3F8E493A34003F68001F2E9
:1001680008DFF48029E493A3F85407240CC8C333A8
:10017800C4540F4420C8834004F456800146F6DF77
:10018800E4800B01020408102040809002C5E47E40
:10019800019360BCA3FF543F30E509541FFEE4936C
:1001A800A360010ECF54C025E060A840B8E493A333
:1001B800FAE493A3F8E493A3C8C582C8CAC583CA5E
:1001C800F0A3C8C582C8CAC583CADFE9DEE780BE16
:0102D100002C
:1000AF00EF8DF0A4A8F0CF8CF0A428CE8DF0A42E65
:0200BF00FE221F
:1000C100C2D5EC30E709B2D5E4C39DFDE49CFCEE5A
:1000D10030E715B2D5E4C39FFFE49EFE1200F7C3DB
:1000E100E49DFDE49CFC80031200F730D507C3E4D6
:0600F1009FFFE49EFE22C9
:1000F700BC000BBE0029EF8DF084FFADF022E4CCED
:10010700F875F008EF2FFFEE33FEEC33FCEE9DECB5
:10011700984005FCEE9DFE0FD5F0E9E4CEFD22EDFB
:10012700F8F5F0EE8420D21CFEADF075F008EF2F45
:10013700FFED33FD4007985006D5F0F222C398FD36
:050147000FD5F0EA22D3
:00000001FF
